{
  "_format": "hh-sol-artifact-1",
  "contractName": "WavePortal",
  "sourceName": "contracts/WavePortal.sol",
  "abi": [
    {
      "inputs": [],
      "stateMutability": "payable",
      "type": "constructor"
    },
    {
      "anonymous": false,
      "inputs": [
        {
          "indexed": true,
          "internalType": "address",
          "name": "from",
          "type": "address"
        },
        {
          "indexed": false,
          "internalType": "uint256",
          "name": "timestamp",
          "type": "uint256"
        },
        {
          "indexed": false,
          "internalType": "string",
          "name": "message",
          "type": "string"
        }
      ],
      "name": "NewWave",
      "type": "event"
    },
    {
      "inputs": [],
      "name": "getAddressTotalWaves",
      "outputs": [
        {
          "internalType": "uint256",
          "name": "",
          "type": "uint256"
        }
      ],
      "stateMutability": "view",
      "type": "function"
    },
    {
      "inputs": [],
      "name": "getAllWaves",
      "outputs": [
        {
          "components": [
            {
              "internalType": "address",
              "name": "waver",
              "type": "address"
            },
            {
              "internalType": "string",
              "name": "message",
              "type": "string"
            },
            {
              "internalType": "uint256",
              "name": "timestamp",
              "type": "uint256"
            }
          ],
          "internalType": "struct WavePortal.Wave[]",
          "name": "",
          "type": "tuple[]"
        }
      ],
      "stateMutability": "view",
      "type": "function"
    },
    {
      "inputs": [],
      "name": "getTotalWaves",
      "outputs": [
        {
          "internalType": "uint256",
          "name": "",
          "type": "uint256"
        }
      ],
      "stateMutability": "view",
      "type": "function"
    },
    {
      "inputs": [
        {
          "internalType": "address",
          "name": "",
          "type": "address"
        }
      ],
      "name": "lastWavedAt",
      "outputs": [
        {
          "internalType": "uint256",
          "name": "",
          "type": "uint256"
        }
      ],
      "stateMutability": "view",
      "type": "function"
    },
    {
      "inputs": [
        {
          "internalType": "string",
          "name": "_message",
          "type": "string"
        }
      ],
      "name": "wave",
      "outputs": [],
      "stateMutability": "nonpayable",
      "type": "function"
    }
  ],
  "bytecode": "0x6080604052620000336040518060600160405280602481526020016200143b602491396200003960201b620007501760201c565b620001cd565b620000d98160405160240162000050919062000146565b6040516020818303038152906040527f41304fac000000000000000000000000000000000000000000000000000000007bffffffffffffffffffffffffffffffffffffffffffffffffffffffff19166020820180517bffffffffffffffffffffffffffffffffffffffffffffffffffffffff8381831617835250505050620000dc60201b60201c565b50565b60008151905060006a636f6e736f6c652e6c6f679050602083016000808483855afa5050505050565b600062000112826200016a565b6200011e818562000175565b93506200013081856020860162000186565b6200013b81620001bc565b840191505092915050565b6000602082019050818103600083015262000162818462000105565b905092915050565b600081519050919050565b600082825260208201905092915050565b60005b83811015620001a657808201518184015260208101905062000189565b83811115620001b6576000848401525b50505050565b6000601f19601f8301169050919050565b61125e80620001dd6000396000f3fe608060405234801561001057600080fd5b50600436106100575760003560e01c8063449d46c01461005c5780639a2cdc0814610078578063a42a466314610096578063bd43a908146100c6578063fcca717a146100e4575b600080fd5b61007660048036038101906100719190610a93565b610102565b005b610080610555565b60405161008d9190610e00565b60405180910390f35b6100b060048036038101906100ab9190610a6a565b6105a0565b6040516100bd9190610e00565b60405180910390f35b6100ce6105b8565b6040516100db9190610cfc565b60405180910390f35b6100ec610709565b6040516100f99190610e00565b60405180910390f35b42600f600460003373ffffffffffffffffffffffffffffffffffffffff1673ffffffffffffffffffffffffffffffffffffffff1681526020019081526020016000205461014f9190610f12565b1061018f576040517f08c379a000000000000000000000000000000000000000000000000000000000815260040161018690610de0565b60405180910390fd5b42600460003373ffffffffffffffffffffffffffffffffffffffff1673ffffffffffffffffffffffffffffffffffffffff1681526020019081526020016000208190555060016000808282546101e59190610f12565b9250508190555060018060003373ffffffffffffffffffffffffffffffffffffffff1673ffffffffffffffffffffffffffffffffffffffff168152602001908152602001600020600082825461023b9190610f12565b925050819055506102816040518060400160405280600d81526020017f2573206861732077617665642100000000000000000000000000000000000000815250336107e9565b600360405180606001604052803373ffffffffffffffffffffffffffffffffffffffff16815260200183815260200142815250908060018154018082558091505060019003906000526020600020906003020160009091909190915060008201518160000160006101000a81548173ffffffffffffffffffffffffffffffffffffffff021916908373ffffffffffffffffffffffffffffffffffffffff160217905550602082015181600101908051906020019061034092919061094a565b506040820151816002015550506000606460025442446103609190610f12565b61036a9190610f12565b6103749190611049565b90506103b56040518060400160405280601681526020017f52616e646f6d20232067656e6572617465643a2025730000000000000000000081525082610885565b806002819055506032811015610501576104046040518060400160405280600781526020017f257320776f6e2100000000000000000000000000000000000000000000000000815250336107e9565b6000655af3107a4000905047811115610452576040517f08c379a000000000000000000000000000000000000000000000000000000000815260040161044990610da0565b60405180910390fd5b60003373ffffffffffffffffffffffffffffffffffffffff168260405161047890610ce7565b60006040518083038185875af1925050503d80600081146104b5576040519150601f19603f3d011682016040523d82523d6000602084013e6104ba565b606091505b50509050806104fe576040517f08c379a00000000000000000000000000000000000000000000000000000000081526004016104f590610dc0565b60405180910390fd5b50505b3373ffffffffffffffffffffffffffffffffffffffff167f5f7e16dc676677766a70e9c5628aa6c54ddb8b6e5188e2ae1e1f17f1ffbea7164284604051610549929190610e1b565b60405180910390a25050565b60006105986040518060400160405280601781526020017f5765206861766520256420746f74616c20776176657321000000000000000000815250600054610885565b600054905090565b60046020528060005260406000206000915090505481565b60606003805480602002602001604051908101604052809291908181526020016000905b8282101561070057838290600052602060002090600302016040518060600160405290816000820160009054906101000a900473ffffffffffffffffffffffffffffffffffffffff1673ffffffffffffffffffffffffffffffffffffffff1673ffffffffffffffffffffffffffffffffffffffff16815260200160018201805461066590610fe6565b80601f016020809104026020016040519081016040528092919081815260200182805461069190610fe6565b80156106de5780601f106106b3576101008083540402835291602001916106de565b820191906000526020600020905b8154815290600101906020018083116106c157829003601f168201915b50505050508152602001600282015481525050815260200190600101906105dc565b50505050905090565b6000600160003373ffffffffffffffffffffffffffffffffffffffff1673ffffffffffffffffffffffffffffffffffffffff16815260200190815260200160002054905090565b6107e6816040516024016107649190610d1e565b6040516020818303038152906040527f41304fac000000000000000000000000000000000000000000000000000000007bffffffffffffffffffffffffffffffffffffffffffffffffffffffff19166020820180517bffffffffffffffffffffffffffffffffffffffffffffffffffffffff8381831617835250505050610921565b50565b61088182826040516024016107ff929190610d40565b6040516020818303038152906040527f319af333000000000000000000000000000000000000000000000000000000007bffffffffffffffffffffffffffffffffffffffffffffffffffffffff19166020820180517bffffffffffffffffffffffffffffffffffffffffffffffffffffffff8381831617835250505050610921565b5050565b61091d828260405160240161089b929190610d70565b6040516020818303038152906040527f9710a9d0000000000000000000000000000000000000000000000000000000007bffffffffffffffffffffffffffffffffffffffffffffffffffffffff19166020820180517bffffffffffffffffffffffffffffffffffffffffffffffffffffffff8381831617835250505050610921565b5050565b60008151905060006a636f6e736f6c652e6c6f679050602083016000808483855afa5050505050565b82805461095690610fe6565b90600052602060002090601f01602090048101928261097857600085556109bf565b82601f1061099157805160ff19168380011785556109bf565b828001600101855582156109bf579182015b828111156109be5782518255916020019190600101906109a3565b5b5090506109cc91906109d0565b5090565b5b808211156109e95760008160009055506001016109d1565b5090565b6000610a006109fb84610e70565b610e4b565b905082815260208101848484011115610a1857600080fd5b610a23848285610fa4565b509392505050565b600081359050610a3a81611211565b92915050565b600082601f830112610a5157600080fd5b8135610a618482602086016109ed565b91505092915050565b600060208284031215610a7c57600080fd5b6000610a8a84828501610a2b565b91505092915050565b600060208284031215610aa557600080fd5b600082013567ffffffffffffffff811115610abf57600080fd5b610acb84828501610a40565b91505092915050565b6000610ae08383610c79565b905092915050565b610af181610f68565b82525050565b610b0081610f68565b82525050565b6000610b1182610eb1565b610b1b8185610ed4565b935083602082028501610b2d85610ea1565b8060005b85811015610b695784840389528151610b4a8582610ad4565b9450610b5583610ec7565b925060208a01995050600181019050610b31565b50829750879550505050505092915050565b6000610b8682610ebc565b610b908185610ef0565b9350610ba0818560208601610fb3565b610ba981611136565b840191505092915050565b6000610bbf82610ebc565b610bc98185610f01565b9350610bd9818560208601610fb3565b610be281611136565b840191505092915050565b6000610bfa603483610f01565b9150610c0582611147565b604082019050919050565b6000610c1d602783610f01565b9150610c2882611196565b604082019050919050565b6000610c40600083610ee5565b9150610c4b826111e5565b600082019050919050565b6000610c63600883610f01565b9150610c6e826111e8565b602082019050919050565b6000606083016000830151610c916000860182610ae8565b5060208301518482036020860152610ca98282610b7b565b9150506040830151610cbe6040860182610cc9565b508091505092915050565b610cd281610f9a565b82525050565b610ce181610f9a565b82525050565b6000610cf282610c33565b9150819050919050565b60006020820190508181036000830152610d168184610b06565b905092915050565b60006020820190508181036000830152610d388184610bb4565b905092915050565b60006040820190508181036000830152610d5a8185610bb4565b9050610d696020830184610af7565b9392505050565b60006040820190508181036000830152610d8a8185610bb4565b9050610d996020830184610cd8565b9392505050565b60006020820190508181036000830152610db981610bed565b9050919050565b60006020820190508181036000830152610dd981610c10565b9050919050565b60006020820190508181036000830152610df981610c56565b9050919050565b6000602082019050610e156000830184610cd8565b92915050565b6000604082019050610e306000830185610cd8565b8181036020830152610e428184610bb4565b90509392505050565b6000610e55610e66565b9050610e618282611018565b919050565b6000604051905090565b600067ffffffffffffffff821115610e8b57610e8a611107565b5b610e9482611136565b9050602081019050919050565b6000819050602082019050919050565b600081519050919050565b600081519050919050565b6000602082019050919050565b600082825260208201905092915050565b600081905092915050565b600082825260208201905092915050565b600082825260208201905092915050565b6000610f1d82610f9a565b9150610f2883610f9a565b9250827fffffffffffffffffffffffffffffffffffffffffffffffffffffffffffffffff03821115610f5d57610f5c61107a565b5b828201905092915050565b6000610f7382610f7a565b9050919050565b600073ffffffffffffffffffffffffffffffffffffffff82169050919050565b6000819050919050565b82818337600083830152505050565b60005b83811015610fd1578082015181840152602081019050610fb6565b83811115610fe0576000848401525b50505050565b60006002820490506001821680610ffe57607f821691505b60208210811415611012576110116110d8565b5b50919050565b61102182611136565b810181811067ffffffffffffffff821117156110405761103f611107565b5b80604052505050565b600061105482610f9a565b915061105f83610f9a565b92508261106f5761106e6110a9565b5b828206905092915050565b7f4e487b7100000000000000000000000000000000000000000000000000000000600052601160045260246000fd5b7f4e487b7100000000000000000000000000000000000000000000000000000000600052601260045260246000fd5b7f4e487b7100000000000000000000000000000000000000000000000000000000600052602260045260246000fd5b7f4e487b7100000000000000000000000000000000000000000000000000000000600052604160045260246000fd5b6000601f19601f8301169050919050565b7f547279696e6720746f207769746864726177206d6f7265206d6f6e657920746860008201527f616e2074686520636f6e7472616374206861732e000000000000000000000000602082015250565b7f4661696c656420746f207769746864726177206d6f6e65792066726f6d20636f60008201527f6e74726163742e00000000000000000000000000000000000000000000000000602082015250565b50565b7f576169742031356d000000000000000000000000000000000000000000000000600082015250565b61121a81610f68565b811461122557600080fd5b5056fea2646970667358221220f00ff2590bd500b8d2c591a01251f14b605575b7de3aaeca72bf1c0159f26fc764736f6c63430008040033596f20796f2c204920616d206120636f6e747261637420616d204920616d20736d617274",
  "linkReferences": {},
  "deployedLinkReferences": {}
}