{
  "_format": "hh-sol-artifact-1",
  "contractName": "WavePortal",
  "sourceName": "contracts/WavePortal.sol",
  "abi": [
    {
      "inputs": [],
      "stateMutability": "nonpayable",
      "type": "constructor"
    },
    {
      "inputs": [],
      "name": "getAddressTotalWaves",
      "outputs": [
        {
          "internalType": "uint256",
          "name": "",
          "type": "uint256"
        }
      ],
      "stateMutability": "view",
      "type": "function"
    },
    {
      "inputs": [],
      "name": "getTotalWaves",
      "outputs": [
        {
          "internalType": "uint256",
          "name": "",
          "type": "uint256"
        }
      ],
      "stateMutability": "view",
      "type": "function"
    },
    {
      "inputs": [],
      "name": "wave",
      "outputs": [],
      "stateMutability": "nonpayable",
      "type": "function"
    }
  ],
  "bytecode": "0x608060405234801561001057600080fd5b5061003c6040518060600160405280602481526020016107e66024913961004160201b6101ce1760201c565b6101c4565b6100dd816040516024016100559190610142565b6040516020818303038152906040527f41304fac000000000000000000000000000000000000000000000000000000007bffffffffffffffffffffffffffffffffffffffffffffffffffffffff19166020820180517bffffffffffffffffffffffffffffffffffffffffffffffffffffffff83818316178352505050506100e060201b60201c565b50565b60008151905060006a636f6e736f6c652e6c6f679050602083016000808483855afa5050505050565b600061011482610164565b61011e818561016f565b935061012e818560208601610180565b610137816101b3565b840191505092915050565b6000602082019050818103600083015261015c8184610109565b905092915050565b600081519050919050565b600082825260208201905092915050565b60005b8381101561019e578082015181840152602081019050610183565b838111156101ad576000848401525b50505050565b6000601f19601f8301169050919050565b610613806101d36000396000f3fe608060405234801561001057600080fd5b50600436106100415760003560e01c80636fe15b44146100465780639a2cdc0814610050578063fcca717a1461006e575b600080fd5b61004e61008c565b005b61005861013c565b60405161006591906104a1565b60405180910390f35b610076610187565b60405161008391906104a1565b60405180910390f35b600160008082825461009e91906104d8565b9250508190555060018060003373ffffffffffffffffffffffffffffffffffffffff1673ffffffffffffffffffffffffffffffffffffffff16815260200190815260200160002060008282546100f491906104d8565b9250508190555061013a6040518060400160405280600d81526020017f257320686173207761766564210000000000000000000000000000000000000081525033610267565b565b600061017f6040518060400160405280601781526020017f5765206861766520256420746f74616c20776176657321000000000000000000815250600054610303565b600054905090565b6000600160003373ffffffffffffffffffffffffffffffffffffffff1673ffffffffffffffffffffffffffffffffffffffff16815260200190815260200160002054905090565b610264816040516024016101e2919061041f565b6040516020818303038152906040527f41304fac000000000000000000000000000000000000000000000000000000007bffffffffffffffffffffffffffffffffffffffffffffffffffffffff19166020820180517bffffffffffffffffffffffffffffffffffffffffffffffffffffffff838183161783525050505061039f565b50565b6102ff828260405160240161027d929190610441565b6040516020818303038152906040527f319af333000000000000000000000000000000000000000000000000000000007bffffffffffffffffffffffffffffffffffffffffffffffffffffffff19166020820180517bffffffffffffffffffffffffffffffffffffffffffffffffffffffff838183161783525050505061039f565b5050565b61039b8282604051602401610319929190610471565b6040516020818303038152906040527f9710a9d0000000000000000000000000000000000000000000000000000000007bffffffffffffffffffffffffffffffffffffffffffffffffffffffff19166020820180517bffffffffffffffffffffffffffffffffffffffffffffffffffffffff838183161783525050505061039f565b5050565b60008151905060006a636f6e736f6c652e6c6f679050602083016000808483855afa5050505050565b6103d18161052e565b82525050565b60006103e2826104bc565b6103ec81856104c7565b93506103fc81856020860161056a565b610405816105cc565b840191505092915050565b61041981610560565b82525050565b6000602082019050818103600083015261043981846103d7565b905092915050565b6000604082019050818103600083015261045b81856103d7565b905061046a60208301846103c8565b9392505050565b6000604082019050818103600083015261048b81856103d7565b905061049a6020830184610410565b9392505050565b60006020820190506104b66000830184610410565b92915050565b600081519050919050565b600082825260208201905092915050565b60006104e382610560565b91506104ee83610560565b9250827fffffffffffffffffffffffffffffffffffffffffffffffffffffffffffffffff038211156105235761052261059d565b5b828201905092915050565b600061053982610540565b9050919050565b600073ffffffffffffffffffffffffffffffffffffffff82169050919050565b6000819050919050565b60005b8381101561058857808201518184015260208101905061056d565b83811115610597576000848401525b50505050565b7f4e487b7100000000000000000000000000000000000000000000000000000000600052601160045260246000fd5b6000601f19601f830116905091905056fea26469706673582212209ab6a03dbe063fc6d884ee594652f72d19d514b0cd39ad1c8d7953c7c1cadb9064736f6c63430008040033596f20796f2c204920616d206120636f6e747261637420616d204920616d20736d617274",
  "linkReferences": {},
  "deployedLinkReferences": {}
}