{
  "_format": "hh-sol-artifact-1",
  "contractName": "WavePortal",
  "sourceName": "contracts/WavePortal.sol",
  "abi": [
    {
      "inputs": [],
      "stateMutability": "payable",
      "type": "constructor"
    },
    {
      "anonymous": false,
      "inputs": [
        {
          "indexed": true,
          "internalType": "address",
          "name": "from",
          "type": "address"
        },
        {
          "indexed": false,
          "internalType": "uint256",
          "name": "timestamp",
          "type": "uint256"
        },
        {
          "indexed": false,
          "internalType": "string",
          "name": "message",
          "type": "string"
        }
      ],
      "name": "NewWave",
      "type": "event"
    },
    {
      "inputs": [],
      "name": "getAddressTotalWaves",
      "outputs": [
        {
          "internalType": "uint256",
          "name": "",
          "type": "uint256"
        }
      ],
      "stateMutability": "view",
      "type": "function"
    },
    {
      "inputs": [],
      "name": "getAllWaves",
      "outputs": [
        {
          "components": [
            {
              "internalType": "address",
              "name": "waver",
              "type": "address"
            },
            {
              "internalType": "string",
              "name": "message",
              "type": "string"
            },
            {
              "internalType": "uint256",
              "name": "timestamp",
              "type": "uint256"
            }
          ],
          "internalType": "struct WavePortal.Wave[]",
          "name": "",
          "type": "tuple[]"
        }
      ],
      "stateMutability": "view",
      "type": "function"
    },
    {
      "inputs": [],
      "name": "getTotalWaves",
      "outputs": [
        {
          "internalType": "uint256",
          "name": "",
          "type": "uint256"
        }
      ],
      "stateMutability": "view",
      "type": "function"
    },
    {
      "inputs": [
        {
          "internalType": "string",
          "name": "_message",
          "type": "string"
        }
      ],
      "name": "wave",
      "outputs": [],
      "stateMutability": "nonpayable",
      "type": "function"
    }
  ],
  "bytecode": "0x6080604052620000336040518060600160405280602481526020016200113d602491396200003960201b620005731760201c565b620001cd565b620000d98160405160240162000050919062000146565b6040516020818303038152906040527f41304fac000000000000000000000000000000000000000000000000000000007bffffffffffffffffffffffffffffffffffffffffffffffffffffffff19166020820180517bffffffffffffffffffffffffffffffffffffffffffffffffffffffff8381831617835250505050620000dc60201b60201c565b50565b60008151905060006a636f6e736f6c652e6c6f679050602083016000808483855afa5050505050565b600062000112826200016a565b6200011e818562000175565b93506200013081856020860162000186565b6200013b81620001bc565b840191505092915050565b6000602082019050818103600083015262000162818462000105565b905092915050565b600081519050919050565b600082825260208201905092915050565b60005b83811015620001a657808201518184015260208101905062000189565b83811115620001b6576000848401525b50505050565b6000601f19601f8301169050919050565b610f6080620001dd6000396000f3fe608060405234801561001057600080fd5b506004361061004c5760003560e01c8063449d46c0146100515780639a2cdc081461006d578063bd43a9081461008b578063fcca717a146100a9575b600080fd5b61006b60048036038101906100669190610878565b6100c7565b005b610075610390565b6040516100829190610ba2565b60405180910390f35b6100936103db565b6040516100a09190610abe565b60405180910390f35b6100b161052c565b6040516100be9190610ba2565b60405180910390f35b60016000808282546100d99190610cb4565b9250508190555060018060003373ffffffffffffffffffffffffffffffffffffffff1673ffffffffffffffffffffffffffffffffffffffff168152602001908152602001600020600082825461012f9190610cb4565b925050819055506101756040518060400160405280600d81526020017f25732068617320776176656421000000000000000000000000000000000000008152503361060c565b600260405180606001604052803373ffffffffffffffffffffffffffffffffffffffff16815260200183815260200142815250908060018154018082558091505060019003906000526020600020906003020160009091909190915060008201518160000160006101000a81548173ffffffffffffffffffffffffffffffffffffffff021916908373ffffffffffffffffffffffffffffffffffffffff160217905550602082015181600101908051906020019061023492919061076d565b506040820151816002015550503373ffffffffffffffffffffffffffffffffffffffff167f5f7e16dc676677766a70e9c5628aa6c54ddb8b6e5188e2ae1e1f17f1ffbea7164283604051610289929190610bbd565b60405180910390a26000655af3107a40009050478111156102df576040517f08c379a00000000000000000000000000000000000000000000000000000000081526004016102d690610b62565b60405180910390fd5b60003373ffffffffffffffffffffffffffffffffffffffff168260405161030590610aa9565b60006040518083038185875af1925050503d8060008114610342576040519150601f19603f3d011682016040523d82523d6000602084013e610347565b606091505b505090508061038b576040517f08c379a000000000000000000000000000000000000000000000000000000000815260040161038290610b82565b60405180910390fd5b505050565b60006103d36040518060400160405280601781526020017f5765206861766520256420746f74616c207761766573210000000000000000008152506000546106a8565b600054905090565b60606002805480602002602001604051908101604052809291908181526020016000905b8282101561052357838290600052602060002090600302016040518060600160405290816000820160009054906101000a900473ffffffffffffffffffffffffffffffffffffffff1673ffffffffffffffffffffffffffffffffffffffff1673ffffffffffffffffffffffffffffffffffffffff16815260200160018201805461048890610d88565b80601f01602080910402602001604051908101604052809291908181526020018280546104b490610d88565b80156105015780601f106104d657610100808354040283529160200191610501565b820191906000526020600020905b8154815290600101906020018083116104e457829003601f168201915b50505050508152602001600282015481525050815260200190600101906103ff565b50505050905090565b6000600160003373ffffffffffffffffffffffffffffffffffffffff1673ffffffffffffffffffffffffffffffffffffffff16815260200190815260200160002054905090565b610609816040516024016105879190610ae0565b6040516020818303038152906040527f41304fac000000000000000000000000000000000000000000000000000000007bffffffffffffffffffffffffffffffffffffffffffffffffffffffff19166020820180517bffffffffffffffffffffffffffffffffffffffffffffffffffffffff8381831617835250505050610744565b50565b6106a48282604051602401610622929190610b02565b6040516020818303038152906040527f319af333000000000000000000000000000000000000000000000000000000007bffffffffffffffffffffffffffffffffffffffffffffffffffffffff19166020820180517bffffffffffffffffffffffffffffffffffffffffffffffffffffffff8381831617835250505050610744565b5050565b61074082826040516024016106be929190610b32565b6040516020818303038152906040527f9710a9d0000000000000000000000000000000000000000000000000000000007bffffffffffffffffffffffffffffffffffffffffffffffffffffffff19166020820180517bffffffffffffffffffffffffffffffffffffffffffffffffffffffff8381831617835250505050610744565b5050565b60008151905060006a636f6e736f6c652e6c6f679050602083016000808483855afa5050505050565b82805461077990610d88565b90600052602060002090601f01602090048101928261079b57600085556107e2565b82601f106107b457805160ff19168380011785556107e2565b828001600101855582156107e2579182015b828111156107e15782518255916020019190600101906107c6565b5b5090506107ef91906107f3565b5090565b5b8082111561080c5760008160009055506001016107f4565b5090565b600061082361081e84610c12565b610bed565b90508281526020810184848401111561083b57600080fd5b610846848285610d46565b509392505050565b600082601f83011261085f57600080fd5b813561086f848260208601610810565b91505092915050565b60006020828403121561088a57600080fd5b600082013567ffffffffffffffff8111156108a457600080fd5b6108b08482850161084e565b91505092915050565b60006108c58383610a3b565b905092915050565b6108d681610d0a565b82525050565b6108e581610d0a565b82525050565b60006108f682610c53565b6109008185610c76565b93508360208202850161091285610c43565b8060005b8581101561094e578484038952815161092f85826108b9565b945061093a83610c69565b925060208a01995050600181019050610916565b50829750879550505050505092915050565b600061096b82610c5e565b6109758185610c92565b9350610985818560208601610d55565b61098e81610e78565b840191505092915050565b60006109a482610c5e565b6109ae8185610ca3565b93506109be818560208601610d55565b6109c781610e78565b840191505092915050565b60006109df603483610ca3565b91506109ea82610e89565b604082019050919050565b6000610a02602783610ca3565b9150610a0d82610ed8565b604082019050919050565b6000610a25600083610c87565b9150610a3082610f27565b600082019050919050565b6000606083016000830151610a5360008601826108cd565b5060208301518482036020860152610a6b8282610960565b9150506040830151610a806040860182610a8b565b508091505092915050565b610a9481610d3c565b82525050565b610aa381610d3c565b82525050565b6000610ab482610a18565b9150819050919050565b60006020820190508181036000830152610ad881846108eb565b905092915050565b60006020820190508181036000830152610afa8184610999565b905092915050565b60006040820190508181036000830152610b1c8185610999565b9050610b2b60208301846108dc565b9392505050565b60006040820190508181036000830152610b4c8185610999565b9050610b5b6020830184610a9a565b9392505050565b60006020820190508181036000830152610b7b816109d2565b9050919050565b60006020820190508181036000830152610b9b816109f5565b9050919050565b6000602082019050610bb76000830184610a9a565b92915050565b6000604082019050610bd26000830185610a9a565b8181036020830152610be48184610999565b90509392505050565b6000610bf7610c08565b9050610c038282610dba565b919050565b6000604051905090565b600067ffffffffffffffff821115610c2d57610c2c610e49565b5b610c3682610e78565b9050602081019050919050565b6000819050602082019050919050565b600081519050919050565b600081519050919050565b6000602082019050919050565b600082825260208201905092915050565b600081905092915050565b600082825260208201905092915050565b600082825260208201905092915050565b6000610cbf82610d3c565b9150610cca83610d3c565b9250827fffffffffffffffffffffffffffffffffffffffffffffffffffffffffffffffff03821115610cff57610cfe610deb565b5b828201905092915050565b6000610d1582610d1c565b9050919050565b600073ffffffffffffffffffffffffffffffffffffffff82169050919050565b6000819050919050565b82818337600083830152505050565b60005b83811015610d73578082015181840152602081019050610d58565b83811115610d82576000848401525b50505050565b60006002820490506001821680610da057607f821691505b60208210811415610db457610db3610e1a565b5b50919050565b610dc382610e78565b810181811067ffffffffffffffff82111715610de257610de1610e49565b5b80604052505050565b7f4e487b7100000000000000000000000000000000000000000000000000000000600052601160045260246000fd5b7f4e487b7100000000000000000000000000000000000000000000000000000000600052602260045260246000fd5b7f4e487b7100000000000000000000000000000000000000000000000000000000600052604160045260246000fd5b6000601f19601f8301169050919050565b7f547279696e6720746f207769746864726177206d6f7265206d6f6e657920746860008201527f616e2074686520636f6e7472616374206861732e000000000000000000000000602082015250565b7f4661696c656420746f207769746864726177206d6f6e65792066726f6d20636f60008201527f6e74726163742e00000000000000000000000000000000000000000000000000602082015250565b5056fea2646970667358221220f120184fd8bd7361729f99b7dbd8d09b5c6de8740ce4b0fb1baa4c5ee58670dd64736f6c63430008040033596f20796f2c204920616d206120636f6e747261637420616d204920616d20736d617274",
  "linkReferences": {},
  "deployedLinkReferences": {}
}